{'block_hash': None,
 'block_height': None,
 'coinbase': False,
 'confirmations': None,
 'date': None,
 'fee': 6399,
 'fee_per_kb': 33333,
 'flag': None,
 'input_total': 100000000,
 'inputs': [{'address': 'blt1qxu6z7evkrmz5s7sk63dr0u3h9xsf2j2vys88reg75cjvjuz4vf2srkxp7p',
             'compressed': True,
             'double_spend': False,
             'encoding': 'bech32',
             'index_n': 0,
             'locktime_cltv': None,
             'locktime_csv': None,
             'output_n': 0,
             'prev_txid': '7b020ae9c7f8ba84a5a5136ae32e6195af5a4f25316f790a1278e04f479ca77d',
             'public_hash': '37342f65961ec5487a16d45a37f23729a095494c240e71e51ea624c970556255',
             'public_keys': ['02116da7d63ef65d15f9712fa19d88c1e2a9b9e3127bcc877bb53a36f6f7e1bdd6',
                             '03f0b62e4d24c28fbe2147522d0c3186f161814393369e14717532881c9bd046aa'],
             'redeemscript': '522102116da7d63ef65d15f9712fa19d88c1e2a9b9e3127bcc877bb53a36f6f7e1bdd62103f0b62e4d24c28fbe2147522d0c3186f161814393369e14717532881c9bd046aa52ae',
             'script': '',
             'script_code': '2102116da7d63ef65d15f9712fa19d88c1e2a9b9e3127bcc877bb53a36f6f7e1bdd6adab2103f0b62e4d24c28fbe2147522d0c3186f161814393369e14717532881c9bd046aaac',
             'script_type': 'p2sh_multisig',
             'sequence': 4294967295,
             'signatures': ['b6418e051ccb55ec7da09f7dd132bbb0059ecd258eb96923cdfb183481c859f31fe1c8ea1c92f2ec63085a13d29b85bcd29db77d4287f3574292e09ccd3f4155'],
             'sigs_required': 2,
             'sort': True,
             'unlocking_script': '',
             'unlocking_script_unsigned': '522102116da7d63ef65d15f9712fa19d88c1e2a9b9e3127bcc877bb53a36f6f7e1bdd62103f0b62e4d24c28fbe2147522d0c3186f161814393369e14717532881c9bd046aa52ae',
             'valid': None,
             'value': 100000000,
             'witness': '',
             'witness_type': 'segwit'}],
 'locktime': 0,
 'network': 'bitcoinlib_test',
 'output_total': 99993601,
 'outputs': [{'address': 'blt1qxu6z7evkrmz5s7sk63dr0u3h9xsf2j2vys88reg75cjvjuz4vf2srkxp7p',
              'output_n': 0,
              'public_hash': '37342f65961ec5487a16d45a37f23729a095494c240e71e51ea624c970556255',
              'public_key': '',
              'script': '002037342f65961ec5487a16d45a37f23729a095494c240e71e51ea624c970556255',
              'script_type': 'p2wsh',
              'spending_index_n': None,
              'spending_txid': None,
              'spent': False,
              'value': 10000000},
             {'address': 'blt1qe4tr993nftagprtapclxrm7ahrcvl4w0dnxfnhz2cx6pjaeg989syy9zge',
              'output_n': 1,
              'public_hash': 'cd563296334afa808d7d0e3e61efddb8f0cfd5cf6ccc99dc4ac1b419772829cb',
              'public_key': '',
              'script': '0020cd563296334afa808d7d0e3e61efddb8f0cfd5cf6ccc99dc4ac1b419772829cb',
              'script_type': 'p2wsh',
              'spending_index_n': None,
              'spending_txid': None,
              'spent': False,
              'value': 89993601}],
 'raw': '010000000001017da79c474fe078120a796f31254f5aaf95612ee36a13a5a584baf8c7e90a027b0000000000ffffffff02809698000000000022002037342f65961ec5487a16d45a37f23729a095494c240e71e51ea624c97055625581315d0500000000220020cd563296334afa808d7d0e3e61efddb8f0cfd5cf6ccc99dc4ac1b419772829cb0000000000',
 'size': 192,
 'status': 'new',
 'txhash': '',
 'txid': '3b96f493d189667565271041abbc0efbd8631bb54d76decb90e144bb145fa613',
 'verified': False,
 'version': 1,
 'vsize': 192,
 'witness_type': 'segwit'}
