{'block_hash': None,
 'block_height': None,
 'coinbase': False,
 'confirmations': None,
 'date': None,
 'fee': 12366,
 'fee_per_kb': 33333,
 'flag': None,
 'input_total': 100000000,
 'inputs': [{'address': '23K38iGiHEHFfHh7SSUd46RWGQNHwha9kAt',
             'compressed': True,
             'double_spend': False,
             'encoding': 'base58',
             'index_n': 0,
             'locktime_cltv': None,
             'locktime_csv': None,
             'output_n': 0,
             'prev_txid': '12821f8ac330e4eddb9f87ea29456b31ec300e232d2c63880f669a9b15e3741f',
             'public_hash': 'e2cf42c85bb53cff8d3b75bdabb31e2c8a00cb8a',
             'public_keys': ['0289d3f95b15f53c666a4b70391e9a7cf6c771f6177d745557750a4160929a932e',
                             '0331271d364803fd05e4a5b95acb2b0f200e9634dd75e95a577477762b8dacbcd3',
                             '03547034e1e807362c5edd66d6951381ac2bde926b5244d5ce9cb1a82a4240bc89'],
             'redeemscript': '52210289d3f95b15f53c666a4b70391e9a7cf6c771f6177d745557750a4160929a932e210331271d364803fd05e4a5b95acb2b0f200e9634dd75e95a577477762b8dacbcd32103547034e1e807362c5edd66d6951381ac2bde926b5244d5ce9cb1a82a4240bc8953ae',
             'script': '',
             'script_code': '',
             'script_type': 'p2sh_multisig',
             'sequence': 4294967295,
             'signatures': ['1862f7a0b7d161954431662fb63db86247cead6dfc6b6c8b9b1c2479297ad3b50a35dd0ec056a43da44d3d04e22181ea59ad9225d2fc4541424d464622a0a6f2'],
             'sigs_required': 2,
             'sort': True,
             'unlocking_script': '',
             'locking_script': '52210289d3f95b15f53c666a4b70391e9a7cf6c771f6177d745557750a4160929a932e210331271d364803fd05e4a5b95acb2b0f200e9634dd75e95a577477762b8dacbcd32103547034e1e807362c5edd66d6951381ac2bde926b5244d5ce9cb1a82a4240bc8953ae',
             'valid': None,
             'value': 100000000,
             'witness': '',
             'witness_type': 'legacy'}],
 'locktime': 0,
 'network': 'bitcoinlib_test',
 'output_total': 99987634,
 'outputs': [{'address': '23K38iGiHEHFfHh7SSUd46RWGQNHwha9kAt',
              'output_n': 0,
              'public_hash': 'e2cf42c85bb53cff8d3b75bdabb31e2c8a00cb8a',
              'public_key': '',
              'script': 'a914e2cf42c85bb53cff8d3b75bdabb31e2c8a00cb8a87',
              'script_type': 'p2sh',
              'spending_index_n': None,
              'spending_txid': None,
              'spent': False,
              'value': 50000000},
             {'address': '239M1DxQuxJcMHtYBdG6A81bfXQrrCNa2rr',
              'output_n': 1,
              'public_hash': '787f3d509665fd64ea9c7f2670ef9f60133290fe',
              'public_key': '',
              'script': 'a914787f3d509665fd64ea9c7f2670ef9f60133290fe87',
              'script_type': 'p2sh',
              'spending_index_n': None,
              'spending_txid': None,
              'spent': False,
              'value': 49987634}],
 'raw': '01000000011f74e3159b9a660f88632c2d230e30ec316b4529ea879fdbede430c38a1f82120000000000ffffffff0280f0fa020000000017a914e2cf42c85bb53cff8d3b75bdabb31e2c8a00cb8a8732c0fa020000000017a914787f3d509665fd64ea9c7f2670ef9f60133290fe8700000000',
 'size': 371,
 'status': 'new',
 'txhash': '',
 'txid': '2e07be62d933f5b257ac066b874df651cd6e6763795c24036904024a2b44180b',
 'verified': False,
 'version': 1,
 'vsize': 371,
 'witness_type': 'legacy'
}

